:040000000200B83210
:01000B0032C2
:0100130032BA
:01001B0032B2
:0100230032AA
:01002B0032A2
:01003300329A
:01003B003292
:030043000202179F
:100048000000E2FBEAF2802C0000E0FBEAF08024EA
:10005800E6B50202EBF62200E2B50202EBF222005C
:10006800E0B50202EBF02230F6E0A88220F5D3EAF0
:10007800C6F582228B822230F6E6A88220F5D98046
:01008800CFA8
:0301110002008960
:0500890012025880FE88
:100114004390035393FD4392025392FE439301434E
:10012400B0035397FC5396FC2275A15575A1AA748C
:10013400F855B94406F5B975A10022C28C53C9EF2C
:10014400E58954F04401F589C28D228582148583A2
:100154001585F016903FFAE49385148285158385FE
:1001640016F012143E7C00EC04FB2514F8E435155B
:10017400F9AA1674FC2CF582E4343FF583E49388E1
:100184008289838AF012143E8B04BC040040D82276
:10019400E582B40100929022E582B401009291229A
:1001A40030B0047F0080027F018F8222AE82AF8351
:1001B4008E048F051EBEFF011FEC4D6013758CF875
:1001C400758A30C28DD28C308DFDC28CC28D80E098
:1001D40022AD82AE83AFF07C00EC2DF9E43EFA8FC1
:1001E4000389828A838BF01214C760030C80EA8C23
:1001F400748D828E838FF012115AE58270012275FC
:1002040074029014E775F08012115AE5827001228D
:100214000211F7C021C0E0C0F0C082C083C007C093
:1002240006C005C004C003C002C001C000C0D07530
:10023400D000120FE3D0D0D000D001D002D003D030
:1002440004D005D006D007D083D082D0F0D0E0D03F
:100254002102008E12011412012D12013F1208F81E
:1002640090000875F04012014F90000875F040129C
:100274000F7B1210C4E582600B1210D31209101206
:09028400097480EE12097480E98E
:0314E7000D0A00EB
:10028D00AF82BF20028009BF09028004C200800234
:10029D00D200A200E433F58222AD82AE83AFF08DA1
:1002AD00028E038F048514178515188516198A82F9
:1002BD008B838CF01214C7F96037851782851883EC
:1002CD008519F01214C7F86028E9B500028004758D
:1002DD008200220ABA00010B8A058B068C070517CE
:1002ED00E4B517020518851714851815851916809C
:1002FD00BD8D828E838FF01214C77011AD14AE15A3
:10030D00AF168D828E838FF01214C76004C20180E8
:10031D0002D201A201E433F58222AD82AE83AFF0A9
:10032D00E4F529F52AF52BF52CF8F52D8D828E8324
:10033D008FF01214C7FB70030203CFBB30004005D2
:10034D00EB24C6500475820022C005C006C0078587
:10035D002914852A15852B16852C1790000AE4F58E
:10036D00F0C007C006C005C00312145985822E8542
:10037D00832F85F030F531D003D005D006D007EBB3
:10038D0024D0FEE4FDFBFFEE252EF529ED352FF5EE
:10039D002AEB3530F52BEF3531F52CC374FF95294C
:1003AD0074FF952AE4952BE4952CD007D006D00543
:1003BD00500475820022052DA82D0DBD00010E02E1
:1003CD000339E87003F58222AD26AE27AF28A9299F
:1003DD00AA2A8D828E838FF0E912143EA3EA12149D
:1003ED003E75820122AD82AE83AFF07514EA7515AC
:1003FD00147516808D828E838FF00202A675820091
:10040D0012019C758200120194752500221201A41F
:10041D00E58260047582002275820112019C9000B4
:10042D00141201B01201A4E582600712040A75824C
:10043D0000227582011201949000641201B0120124
:10044D00A4E582600712040A7582002275250175E4
:10045D00820122E52560191201A4E582600990143C
:10046D00EC75F0800201D590151175F0800201D563
:10047D001201A4E582600990153675F0800201D550
:10048D0090155C75F0800201D5AE82AF83EE4F60A2
:10049D003F8E048F058E028F03C3740A9AE49B501E
:1004AD00047C0A7D008C828D83C007C006C005C008
:1004BD00041201B01201A4E582D004D005D006D0FB
:1004CD0007600475820022EEC39CFEEF9DFF80BD88
:1004DD007582012285823285833385F0347A007BE3
:1004ED00017C00790078008A828B838CF01214C70E
:1004FD0070030205CC8A358B368C3785358285366F
:10050D00838537F01214C7F538853882C001C000D5
:10051D0012028DE582D000D001600A0535E4B535B3
:10052D00DA053680D6E53870030205CCB8030475BC
:10053D008204228807088801EF75F003A42532FD97
:10054D00E53335F0FEAF348D828E838FF0E53512B5
:10055D00143EA3E53612143EA3E53712143EAD3515
:10056D00AE36AF378D828E838FF01214C7F538609B
:10057D0025853882C007C006C005C001C000120223
:10058D008DE582D000D001D005D006D00770070DC3
:10059D00BD00D10E80CE8D028E038F048D828E8391
:1005AD008FF01214C770030204F48D828E838FF0C6
:1005BD00E412143E042DFAE43EFB8F040204F48988
:1005CD008222E582FF24FD402FBF023574032539B9
:1005DD00FDE4353AFEAF3B8D828E838FF01214C74A
:1005ED00FDA31214C7FEA31214C7FF8D828E838F35
:1005FD00F01203F2E582700990158275F080020108
:10060D00D512041AE582700990159275F0800201D9
:10061D00D59015A375F0800201D5E582FF24FD402C
:10062D002FBF02357403253CFDE4353DFEAF3E8DF5
:10063D00828E838FF01214C7FDA31214C7FEA3126E
:10064D0014C7FF8D828E838FF01203F2E58270093D
:10065D0090158275F0800201D512040A9015A375CC
:10066D00F0800201D5AF827542D07543077C007DC5
:10067D00007E00BF02217403253FF9E43540FAAB3B
:10068D004189828A838BF01214C7FCA31214C7FD13
:10069D00A31214C7FE8067BF03567403253FF9E408
:1006AD003540FAAB4189828A838BF01214C7F9A3C6
:1006BD001214C7FAA31214C7FB89828A838BF01216
:1006CD0003F2E582700990158275F0800201D574F0
:1006DD0006253FF9E43540FAAB4189828A838BF0D8
:1006ED001214C7FCA31214C7FDA31214C7FE800E6B
:1006FD00BF0102800990158275F0800201D5EC4D85
:10070D0060347526427527007528408C828D838E46
:10071D00F0120327E5826015AE42AF43C3EE946439
:10072D00EF9400400874309E74759F5009901582A7
:10073D0075F0800201D512040A8542828543831229
:10074D000496E582700990159275F0800201D5121C
:10075D00041AE582700990159275F0800201D5900A
:10076D0015A375F0800201D5E524600990158275F9
:10077D00F0800201D590004475F0401204E1E5824D
:10078D00FF700122EF24FC500990158275F0800254
:10079D0001D57514A6751515751680854482854588
:1007AD00838546F0C0071202A6E582D007600E755C
:1007BD003944753A00753B408F820205CF7514A9F7
:1007CD007515157516808544828545838546F0C05F
:1007DD00071202A6E582D007600E753C44753D00F8
:1007ED00753E408F820206277514AD751515751669
:1007FD00808544828545838546F0C0071202A6E5B3
:10080D0082D007600E753F447540007541408F8260
:10081D000206727514B3751515751680854482859B
:10082D0045838546F0C0071202A6E582D0076024F5
:10083D00BF01028013BF0213854782854883854916
:10084D00F01203F2E582600302046090158275F0E8
:10085D00800201D57514BA751515751680854482FB
:10086D008545838546F0C0071202A6E582D0076054
:10087D001FBF011C1201A4E58260067DC07E15809C
:10088D00047DC87E157C808D828E838CF00201D50F
:10089D007514D0751515751680854482854583852B
:1008AD0046F0C0071202A6E582D007600CBF010911
:1008BD009015D875F0800201D57514EC7515157568
:1008CD0016808544828545838546F0C0071202A6B1
:1008DD00E582D007600CBF01099015F175F080021B
:1008ED0001D590162E75F0800201D5752200752365
:1008FD000075240075250075820012019C7582001B
:10090D00020194AF82E5236001228F06BF0D0280A4
:10091D0003BF0A19E5227004E5246010E5222400C6
:10092D00F582E43401F583E4F075230122BF410023
:10093D004009EF24A5400474202FFEBE2000500373
:10094D00BE0905EE248150047524012274E125228F
:10095D00500475240122AF220522EF2400F582E414
:10096D003401F583EEF022E525600A1201A4E5823B
:10097D00600312040AE52370012212077575220027
:0B098D007523007524002285258222BE
:1014EA0031005354415445206F6E206661756C7407
:1014FA003D312076657273696F6E3D302E322E3122
:10150A002D7265766331005354415445206F6E2025
:10151A006661756C743D302076657273696F6E3DD5
:10152A00302E322E312D7265766331005354415478
:10153A0045206F6666206661756C743D312076655C
:10154A007273696F6E3D302E322E312D726576635D
:10155A0031005354415445206F6666206661756CAC
:10156A00743D302076657273696F6E3D302E322E6F
:10157A00312D72657663310045525220696E76616B
:10158A006C69645F61726700455252206661756CCE
:10159A00745F616374697665004F4B006F6E006F0C
:1015AA006666006379636C650073746174757300B1
:1015BA006661756C74004641554C542031004641B1
:1015CA00554C5420300076657273696F6E0056452B
:1015DA005253494F4E20302E322E312D726576638A
:1015EA00310068656C7000434F4D4D414E445320A5
:1015FA006F6E206F6666206379636C65205B31309D
:10160A00302E2E33303030305D2073746174757330
:10161A00206661756C742076657273696F6E2068D6
:10162A00656C700045525220696E76616C69645F20
:08163A00636F6D6D616E6400C9
:10099800AF82758300E0FE7D00EF042400F582E459
:1009A8003400F583E0FCE44EF582EC4DF5832275C6
:1009B800DD0075DCCF7552002275520275DD0075B9
:1009C800DCC022E55045516057AE50AF51C37408A2
:1009D8009EE49F50047C088002AC508C147D00C3B8
:1009E800ED951450258D027B00A84DA94EAC4F887B
:1009F8008289838CF01214C7F8054DE4B54D0205C1
:100A08004E8A828B83E8F00D80D5AD147C00EEC34E
:100A18009DFEEF9CFF8E508F518514DD53DCFC2228
:100A2800E553600A75530075DD0053DCFC2275DD63
:100A38000074FC55DC4402F5DC75520022AD82AE30
:100A480083AFF0AB5BAC5CC3E55D9BE55E9C50049B
:100A5800AB5DAC5E8D4D8E4E8F4F8B508C51C3EB82
:100A6800955DEC955E5005EB54076004C202800268
:100A7800D202A202E433F5537552010209CB75572D
:100A880000755800755900755A0075D30075D50062
:100A980075D212E556B40100920340047F0080022B
:100AA8007F0874124FF5D422AE82AF838F05BD0143
:100AB800028003BD020CEE7006E55F45606003022C
:100AC80009B7E4BD030104FF601BEE7006E55F454E
:100AD80060700FEE600FAB5FAC60BB0905BC040231
:100AE80080030209B7EF6018BE0315755B20755CBB
:100AF8000085615D85625E90012075F000020A45FF
:100B08007515637516007517408E148D821211FACB
:100B1800AD82AE83AFF08D028E038F04ED4E70036D
:100B28000209B785635B85645C85615D85625E8A61
:100B3800828B838CF0020A45AF82E56524F450036A
:100B48000209B7E565240B83F582E565241083F572
:100B580083E473173FEF95EF9073EFDEB7E21E0C57
:100B68000D0D0D0D0B0B0D0B0B0C0DBF8002800333
:100B78000209B785685F856960856A61856B6285EA
:100B88006682856783020AB0EF7018AD66AE67C3E8
:100B9800747F9DE49E400CE56845697006E56A45EA
:100BA8006B60030209B78566547555010209C1EFE8
:100BB8007018AD66AE67C374019DE49E400CE5688D
:100BC80045697006E56A456B60030209B785665694
:100BD800120A860209C1BF8018E56645677012E5EA
:100BE800684569700CAD6AAE6BBD0105BE00028038
:100BF800030209B7900140E556F0755B01755C008A
:100C0800856A5D856B5E90014075F000020A45E5D6
:100C1800664567700CAD6AAE6BBD0205BE0002800A
:100C2800030209B7BF8022E5684569701C9001403E
:100C3800E4F0900141F0755B02F55C856A5D856BB7
:100C48005E900140F5F0020A45BF8128AD68AE69A3
:100C5800C374019DE49E401C900140E4F090014162
:100C6800F0755B02F55C856A5D856B5E900140F509
:100C7800F0020A45BF8260E5684569600AAD68AE62
:100C880069BD8007BE00047C008021BD8107BE00CD
:100C9800047C018017BD0207BE00047C02800DBDE4
:100CA8008207BE00047C0480030209B7EC6009ECEB
:100CB800555A60047E0180027E00900140EEF0905B
:100CC8000141E4F0755B02F55C856A5D856B5E90B9
:100CD8000140F5F0020A450209B7BF811EE56645E5
:100CE800677018AD68AE69C374019DE49E400CAD91
:100CF8006AAE6BBD0105BE000280030209B7900110
:100D080040E4F0755B01F55C856A5D856B5E90017A
:100D180040F5F0020A45BF0118E56645677012AD57
:100D280068AE69C374019DE49E4006E56A456B6040
:100D3800030209B70209C1BF020CE56645677006E0
:100D4800E56A456B60030209B7AD68AE69BD810B02
:100D5800BE0008535AFE75D212802FBD0211BE0084
:100D68000E535AFD75570075580053D473801BBD38
:100D78008215BE0012535AFBE4F559F5D574BC55DB
:100D8800D44402F5D480030209B70209C1BF020C9A
:100D9800E56645677006E56A456B60030209B7AE0C
:100DA80068AF69BE8110BF000D435A0174FC55D26B
:100DB8004403F5D2802EBE0210BF000D435A0274C0
:100DC800F355D4440CF5D4801BBE8215BF001243E2
:100DD8005A04E4F559F5D574FC55D44403F5D48088
:100DE800030209B70209C10209B7AF82E56F45706E
:100DF80060030209B77420B56C0280157421B56CC4
:100E08000280307422B56C0280567423B56C608001
:100E18004FBF2112E56D456E700CAD71AE72BD0706
:100E280005BE000280030209B775520375DD00751F
:100E3800DCC222BFA112E56D456E700CAD71AE72B9
:100E4800BD0705BE000280030209B7755B07755C24
:100E58000085715D85725E90014875F000020A4553
:100E6800BF2106E571457260030209B70209C10294
:100E780009B7900000E0FF900001E0F57375820269
:100E8800C007120998AC82AD83758204C005C004FE
:100E9800120998AA82AB83758206C003C0021209A0
:100EA80098A882A983D002D003D004D005D007E443
:100EB800F552F550F551F553F55575DCC2EF546010
:100EC80070148573658C668D678A688B69886A89F2
:100ED8006B8F82020B408F06530660BE2014857309
:100EE8006C8C6D8D6E8A6F8B70887189728F82029F
:100EF8000DF20209B77402B5521975DD0074FC557C
:100F0800DC4402F5DC755200E55560068554E3754E
:100F18005500227401B5520663DC400209CB75DD29
:100F28000074FC55DC4402F5DC227403B5522874C5
:100F380007B5DB0280030209B77F00EF2448FDE410
:100F48003401FE8F82758300E08D828E83F00FBF9F
:100F5800070040E70209C175DCC2755200227556C8
:100F68000075550075520075E30075DD0075DC02EB
:100F7800020A8685820D85830E85F00F9001207503
:100F8800F000121322900148E4F090014974C2F075
:100F980090014A7401F090014BE4F090014CF090FC
:100FA800014DF090014E7408F07E007F008EEC8FAA
:100FB800ED7E407F008EEE8FEF7E807F008EE48F87
:100FC800E575EA4075EB0C120F6675D8FF75E107F9
:100FD80075E22975D181D2EAD2AF22E5D820E103A2
:100FE800021085AFD9740F5FFE74305FFDEE700993
:100FF800BD3006120E7A021083EE7008BD2005126D
:101008000EFD8077EE700CED7009EF30E66D120F73
:10101800328068E4BE020104FE6041ED703EE55690
:10102800700EF557F55874F355D44408F5D4804B31
:10103800EF30E64785DB57755800E55A30E10A740A
:10104800F355D4440CF5D48032E557700553D4F3E6
:10105800802974F355D44408F5D4801FEE601CBD74
:101068002019E4F5D5F55974FC55D4FFE55A30E25A
:10107800047E0380027E02EE4FF5D4C2D9E5D83053
:10108800E005120F66C2D8E5D830E21BE4F559F541
:10109800D574FC55D4FFE55A30E2047E0380027E05
:1010A80002EE4FF5D4C2DAE5D830E402C2DC22E51C
:1010B80056B40100B39204E433F58222E556700376
:1010C800F58222E557C39558F58222E5566007C395
:1010D800E5589557400475820022E558FF04F558F5
:1010E800EF2480F582E43400F583E0FFE557B55836
:1010F80023E4F558F55774F355D4FEE55670047D8E
:1011080008800DE55A30E1047C0C80027C008C05D7
:10111800ED4EF5D48F82227E607FEAE559602FE597
:1011280056600EE55A20E2091EBEFF011FEE4F7001
:10113800EAE4F559F5D574FC55D4FFE55A30E204D4
:101148007E0380027E02EE4FF5D4758200227582FE
:101158000122AD82AE83AFF0E5566005E55A30E274
:101168000475820022E57470030211F3C007C006FB
:10117800C00512111FE582D005D006D0077003F50F
:101188008222E57424BF50047C408004AB748B0435
:101198008C758D018E028F03757600C3E576957583
:1011A8005030A8767C00744028F8E43CFCE82480A1
:1011B800F577EC3400F57889828A838BF01214C7AE
:1011C800FCA3A982AA83857782857883ECF00576CB
:1011D80080C989058A068B077559018575D553D449
:1011E800FCE574C39575F57402116D7582012202D0
:1011F800111FAF82BF0121E514701DAC15AD16AEED
:10120800178C828D838EF0741212143EA3E412148C
:101218003E90164275F08022BF0221E514701DAC85
:1012280015AD16AE178C828D838EF0744B12143E5A
:10123800A3E412143E90165475F08022BF03028076
:101248001AAD15AE16AF178D828E838FF0E4121487
:101258003EA312143E900000F5F022E514601574C8
:1012680001B51402802B7402B5140280417404B5D0
:1012780014768057AD15AE16AF178D828E838FF01A
:10128800740412143EA3E412143E90169F75F08065
:1012980022AD15AE16AF178D828E838FF07414129F
:1012A800143EA3E412143E9016A375F08022AD15E7
:1012B800AE16AF178D828E838FF0743412143EA34E
:1012C800E412143E9016B775F08022AD15AE16AF35
:1012D800178D828E838FF0741812143EA3E41214B3
:1012E8003E9016EB75F08022AD15AE16AF178D82C5
:1012F8008E838FF0E412143EA312143E900000F582
:10130800F022AF8253070FBF0A0050088F067430CF
:101318002EF5822274372FF582228582108583115B
:1013280085F012742012143E74012510FAE4351168
:10133800FBAC128A828B838CF0740312143E7C02FD
:10134800751300EC04FAEC2510F8E43511F9AB122A
:10135800E51390170393888289838BF012143EEA71
:1013680004FCEA2510FAE43511FFAE128A828F8355
:101378008EF0E412143E051374FB251350C57F004C
:10138800EF250DFBE4350EFDAE0F8B828D838EF0BD
:101398001214C7FBEC04FEEC2510F9E43511FAAD84
:1013A80012EBC4540FF582C007C006C005C003C0C5
:1013B80002C00112130AA882D001D002D003D005BE
:1013C800D00689828A838DF0E812143EEE04FDEE81
:1013D8002510F9E43511FAAE1289828A838EF0E479
:1013E80012143EED04FEED2510F9E43511FAAD12A4
:1013F8008B82C006C005C002C00112130AAB82D09E
:1014080001D002D005D006D00789828A838DF0EBFF
:1014180012143EEE04FCEE2510FEE43511FDAB126D
:101428008E828D838BF0E412143E0FBF05005003AB
:061438000213888C8222E1
:101642001201000202000008861A2257000201025B
:10165200030109024B000201008032080B00020262
:101662000201040904000001020201040524001021
:1016720001052401000104240202052406000107D9
:1016820005810308001009040100020A0000040792
:10169200050202400000070582024000000403091F
:1016A2000414036F0068005F006D0079005F00752D
:1016B20000730062003403550053004200200052C0
:1016C20000650070006C0075006700200044006F28
:1016D200006E0067006C0065002000520065007615
:1016E200002E0043002E003100180343006F006EED
:1016F20000740072006F006C00200043004400433D
:0717020000525643312D0097
:0600E700E478FFF6D8FDED
:1000C5007900E94400601B7A00901709784F75A004
:1000D50001E493F2A308B8000205A0D9F4DAF27599
:0200E500A0FF7A
:10008E00C000A88118C0D0B6001B18B64800401595
:10009E00B66F005010C0E0E65407B406005004E6F8
:0A00AE0054F8F6D0E0D0D0D00032B4
:10143E0020F71130F6138883A88220F509F6A883C9
:10144E007583002280FEF280F5F022AAF0FBE58281
:10145E008514F0A4FCADF0E5838514F0A42DFDE415
:10146E0035F0FEE5828515F0A42DFDE5F03EFEE497
:10147E0033FFEA8514F0A42EFEE5F03FFFE58385E9
:10148E0015F0A42EFEE5F03FFFE5828516F0A42EA2
:10149E00FEE5F03FFFEB8514F0A42FFFEA8515F073
:1014AE00A42FFFE5838516F0A42FFFE5828517F0A4
:0914BE00A42F8EF08D838C822294
:1000ED007800E84400600A790075A001E4F309D8AE
:1000FD00FC784FE84400600C7901900100E4F0A316
:04010D00D8FCD9FA47
:0D00B8007581781214E3E58260030200896F
:1014C70020F71430F6148883A88220F507E6A8834E
:1014D70075830022E280F7E49322E02275820022DE
:00000001FF
